:030000000209866C
:0C098600787FE4F6D8FD75811402095D4D
:0A099200C0F9A4B0999282F8809099
:10095D00C292C291C290D2907F097E0012090CC240
:10096D0090D2917F057E0012090CC291D2927F091F
:09097D007E0012090CC29280DD1B
:04090C008E088F09B9
:10091000780A7C007D007BFF7A0979927E007F0A4D
:100920001208D0E4F5A0F514D3E5149509E50864A0
:1009300080F87480985025740A2514F8E6F5A09084
:100940000000AF82AE83E4FCFD7B507AC3F9F8D39C
:0C0950001208F64003A380EA051480CCD6
:01095C002278
:10080000E709F608DFFA8046E709F208DFFA803EDA
:1008100088828C83E709F0A3DFFA8032E309F608C7
:10082000DFFA8078E309F208DFFA807088828C832F
:10083000E309F0A3DFFA806489828A83E0A3F608E3
:10084000DFFA805889828A83E0A3F208DFFA804CBD
:1008500080D280FA80C680D4806980F28033801094
:1008600080A680EA809A80A880DA80E280CA8033FD
:1008700089828A83ECFAE493A3C8C582C8CCC58375
:10088000CCF0A3C8C582C8CCC583CCDFE9DEE78045
:100890000D89828A83E493A3F608DFF9ECFAA9F0C4
:1008A000EDFB2289828A83ECFAE0A3C8C582C8CC1A
:1008B000C583CCF0A3C8C582C8CCC583CCDFEADE33
:1008C000E880DB89828A83E493A3F208DFF980CC95
:1008D00088F0EF60010E4E60C388F0ED2402B4048E
:1008E0000050B9F582EB2402B4040050AF23234535
:0608F00082239008507302
:1008F600EB9FF5F0EA9E42F0E99D42F0EC6480C879
:0609060064809845F02218
:00000001FF
